{
  "contractName": "Transactions",
  "abi": [
    {
      "constant": true,
      "inputs": [],
      "name": "numTransactions",
      "outputs": [
        {
          "internalType": "uint256",
          "name": "",
          "type": "uint256"
        }
      ],
      "payable": false,
      "stateMutability": "view",
      "type": "function"
    },
    {
      "constant": true,
      "inputs": [
        {
          "internalType": "uint256",
          "name": "",
          "type": "uint256"
        }
      ],
      "name": "transactions",
      "outputs": [
        {
          "internalType": "string",
          "name": "txHash",
          "type": "string"
        },
        {
          "internalType": "string",
          "name": "txType",
          "type": "string"
        },
        {
          "internalType": "string",
          "name": "accountAdress",
          "type": "string"
        }
      ],
      "payable": false,
      "stateMutability": "view",
      "type": "function"
    },
    {
      "constant": false,
      "inputs": [
        {
          "internalType": "string",
          "name": "_txHash",
          "type": "string"
        },
        {
          "internalType": "string",
          "name": "_txtype",
          "type": "string"
        },
        {
          "internalType": "string",
          "name": "_account",
          "type": "string"
        }
      ],
      "name": "addTransaction",
      "outputs": [],
      "payable": false,
      "stateMutability": "nonpayable",
      "type": "function"
    },
    {
      "constant": false,
      "inputs": [],
      "name": "getTransactionsCount",
      "outputs": [
        {
          "internalType": "uint256",
          "name": "",
          "type": "uint256"
        }
      ],
      "payable": false,
      "stateMutability": "nonpayable",
      "type": "function"
    },
    {
      "constant": false,
      "inputs": [
        {
          "internalType": "uint256",
          "name": "index",
          "type": "uint256"
        }
      ],
      "name": "getTransactions",
      "outputs": [
        {
          "internalType": "string[]",
          "name": "",
          "type": "string[]"
        },
        {
          "internalType": "string[]",
          "name": "",
          "type": "string[]"
        },
        {
          "internalType": "string[]",
          "name": "",
          "type": "string[]"
        }
      ],
      "payable": true,
      "stateMutability": "payable",
      "type": "function"
    }
  ],
  "bytecode": "0x608060405234801561001057600080fd5b506109ee806100206000396000f3fe60806040526004361061004a5760003560e01c80635742177c1461004f578063578cb8f91461007a57806390b4cc721461009c5780639ace38c2146100b1578063f61921df146100e0575b600080fd5b61006261005d366004610775565b610102565b60405161007193929190610863565b60405180910390f35b34801561008657600080fd5b5061008f610364565b60405161007191906108de565b3480156100a857600080fd5b5061008f61036b565b3480156100bd57600080fd5b506100d16100cc366004610775565b610371565b604051610071939291906108a5565b3480156100ec57600080fd5b506101006100fb3660046106e1565b61053f565b005b6060808080808060005b6001548110156103565761011e6105c3565b600089815260208181526040918290208251815460026001821615610100026000190190911604601f810184900490930281016080908101909452606081018381529093919284928491908401828280156101ba5780601f1061018f576101008083540402835291602001916101ba565b820191906000526020600020905b81548152906001019060200180831161019d57829003601f168201915b50505050508152602001600182018054600181600116156101000203166002900480601f01602080910402602001604051908101604052809291908181526020018280546001816001161561010002031660029004801561025c5780601f106102315761010080835404028352916020019161025c565b820191906000526020600020905b81548152906001019060200180831161023f57829003601f168201915b5050509183525050600282810180546040805160206001841615610100026000190190931694909404601f810183900483028501830190915280845293810193908301828280156102ee5780601f106102c3576101008083540402835291602001916102ee565b820191906000526020600020905b8154815290600101906020018083116102d157829003601f168201915b5050505050815250509050806000015185838151811061030a57fe5b6020026020010181905250806020015184838151811061032657fe5b6020026020010181905250806040015183838151811061034257fe5b60209081029190910101525060010161010c565b509196909550909350915050565b6001545b90565b60015481565b6000602081815291815260409081902080548251601f6002600019610100600186161502019093169290920491820185900485028101850190935280835290928391908301828280156104055780601f106103da57610100808354040283529160200191610405565b820191906000526020600020905b8154815290600101906020018083116103e857829003601f168201915b505050505090806001018054600181600116156101000203166002900480601f0160208091040260200160405190810160405280929190818152602001828054600181600116156101000203166002900480156104a35780601f10610478576101008083540402835291602001916104a3565b820191906000526020600020905b81548152906001019060200180831161048657829003601f168201915b50505060028085018054604080516020601f60001961010060018716150201909416959095049283018590048502810185019091528181529596959450909250908301828280156105355780601f1061050a57610100808354040283529160200191610535565b820191906000526020600020905b81548152906001019060200180831161051857829003601f168201915b5050505050905083565b604080516060810182528481526020808201859052818301849052600154600090815280825292909220815180519293919261057e92849201906105e4565b50602082810151805161059792600185019201906105e4565b50604082015180516105b39160028401916020909101906105e4565b5050600180548101905550505050565b60405180606001604052806060815260200160608152602001606081525090565b828054600181600116156101000203166002900490600052602060002090601f016020900481019282601f1061062557805160ff1916838001178555610652565b82800160010185558215610652579182015b82811115610652578251825591602001919060010190610637565b5061065e929150610662565b5090565b61036891905b8082111561065e5760008155600101610668565b600082601f83011261068d57600080fd5b81356106a061069b82610913565b6108ec565b915080825260208301602083018583830111156106bc57600080fd5b6106c783828461094e565b50505092915050565b80356106db81610994565b92915050565b6000806000606084860312156106f657600080fd5b833567ffffffffffffffff81111561070d57600080fd5b6107198682870161067c565b935050602084013567ffffffffffffffff81111561073657600080fd5b6107428682870161067c565b925050604084013567ffffffffffffffff81111561075f57600080fd5b61076b8682870161067c565b9150509250925092565b60006020828403121561078757600080fd5b600061079384846106d0565b949350505050565b60006107a7838361081c565b9392505050565b60006107b982610941565b6107c38185610945565b9350836020820285016107d58561093b565b8060005b8581101561080f57848403895281516107f2858261079b565b94506107fd8361093b565b60209a909a01999250506001016107d9565b5091979650505050505050565b600061082782610941565b6108318185610945565b935061084181856020860161095a565b61084a8161098a565b9093019392505050565b61085d81610368565b82525050565b6060808252810161087481866107ae565b9050818103602083015261088881856107ae565b9050818103604083015261089c81846107ae565b95945050505050565b606080825281016108b6818661081c565b905081810360208301526108ca818561081c565b9050818103604083015261089c818461081c565b602081016106db8284610854565b60405181810167ffffffffffffffff8111828210171561090b57600080fd5b604052919050565b600067ffffffffffffffff82111561092a57600080fd5b506020601f91909101601f19160190565b60200190565b5190565b90815260200190565b82818337506000910152565b60005b8381101561097557818101518382015260200161095d565b83811115610984576000848401525b50505050565b601f01601f191690565b61099d81610368565b81146109a857600080fd5b5056fea365627a7a7231582019474d989c2780b1a8c1fbc1534abce606b819465bd9581c4bb746a4cbc65e7c6c6578706572696d656e74616cf564736f6c63430005100040",
  "source": "// SPDX-License-Identifier: MIT\npragma solidity >=0.4.22 <0.9.0;\npragma experimental ABIEncoderV2;\n\ncontract Transactions{\n    mapping(uint => transaction)public  transactions;\n    uint public numTransactions;\n\n    struct transaction{\n        string txHash;\n        string txType; // add or delete\n        string accountAdress;\n\n    }\n    function addTransaction(string memory _txHash,string memory _txtype,string memory _account) public {\n        \n        transactions[numTransactions]=transaction(_txHash,_txtype,_account);\n        numTransactions++;\n\n    }\n    function getTransactionsCount() public returns(uint){ return numTransactions;}\n    function getTransactions(uint index) \n    payable \n    public\n     returns(\n         string[] memory,\n         string[] memory,\n         string[] memory\n          )\n         { \nstring[] memory Hashes;\nstring[] memory Types;\nstring[] memory Accounts;\n\nfor(uint i=0;i<numTransactions;i++) {\n    transaction memory obj =transactions[index];\n    Hashes[i]=obj.txHash;\n    Types[i]=obj.txType;\n    Accounts[i]= obj.accountAdress;\n\n}\nreturn (Hashes,Types,Accounts);\n\n\n    }\n}",
  "sourcePath": "/Users/DATA DRIVE/Degree/L5/SDGP/Project/truffle/contracts/Transactions.sol",
  "compiler": {
    "name": "solc",
    "version": "0.5.16+commit.9c3226ce.Emscripten.clang"
  },
  "schemaVersion": "3.4.5",
  "updatedAt": "2022-03-27T12:00:44.877Z",
  "devdoc": {
    "methods": {}
  },
  "userdoc": {
    "methods": {}
  }
}