{
  "contractName": "VaxPass",
  "abi": [
    {
      "constant": false,
      "inputs": [
        {
          "name": "item",
          "type": "string"
        }
      ],
      "name": "addItem",
      "outputs": [],
      "payable": false,
      "stateMutability": "nonpayable",
      "type": "function",
      "signature": "0x27e9f294"
    },
    {
      "constant": false,
      "inputs": [
        {
          "name": "index",
          "type": "uint256"
        }
      ],
      "name": "deleteItem",
      "outputs": [
        {
          "name": "",
          "type": "string[]"
        }
      ],
      "payable": false,
      "stateMutability": "nonpayable",
      "type": "function",
      "signature": "0x654fc833"
    },
    {
      "constant": true,
      "inputs": [],
      "name": "getItems",
      "outputs": [
        {
          "name": "",
          "type": "string[]"
        }
      ],
      "payable": false,
      "stateMutability": "view",
      "type": "function",
      "signature": "0x410d59cc"
    }
  ],
  "bytecode": "0x608060405234801561001057600080fd5b506107d8806100206000396000f3fe6080604052600436106100565763ffffffff7c010000000000000000000000000000000000000000000000000000000060003504166327e9f294811461005b578063410d59cc1461007d578063654fc833146100a8575b600080fd5b34801561006757600080fd5b5061007b6100763660046105f7565b6100c8565b005b34801561008957600080fd5b5061009261010e565b60405161009f91906106ee565b60405180910390f35b3480156100b457600080fd5b506100926100c3366004610634565b6101e7565b60008054600181018083559180528251610109917f290decd9548b62a8d60345a988386fc84ba6bc95484008f6362f93160ef3e5630190602085019061043c565b505050565b60606000805480602002602001604051908101604052809291908181526020016000905b828210156101dd5760008481526020908190208301805460408051601f60026000196101006001871615020190941693909304928301859004850281018501909152818152928301828280156101c95780601f1061019e576101008083540402835291602001916101c9565b820191906000526020600020905b8154815290600101906020018083116101ac57829003601f168201915b505050505081526020019060010190610132565b5050505090505b90565b60005460609082106102cb576000805480602002602001604051908101604052809291908181526020016000905b828210156102c05760008481526020908190208301805460408051601f60026000196101006001871615020190941693909304928301859004850281018501909152818152928301828280156102ac5780601f10610281576101008083540402835291602001916102ac565b820191906000526020600020905b81548152906001019060200180831161028f57829003601f168201915b505050505081526020019060010190610215565b505050509050610437565b815b600054600019018110156103375760008054600183019081106102ec57fe5b9060005260206000200160008281548110151561030557fe5b90600052602060002001908054600181600116156101000203166002900461032e9291906104ba565b506001016102cd565b506000805480151561034557fe5b600190038181906000526020600020016000610361919061052f565b90556000805480602002602001604051908101604052809291908181526020016000905b828210156104305760008481526020908190208301805460408051601f600260001961010060018716150201909416939093049283018590048502810185019091528181529283018282801561041c5780601f106103f15761010080835404028352916020019161041c565b820191906000526020600020905b8154815290600101906020018083116103ff57829003601f168201915b505050505081526020019060010190610385565b5050505090505b919050565b828054600181600116156101000203166002900490600052602060002090601f016020900481019282601f1061047d57805160ff19168380011785556104aa565b828001600101855582156104aa579182015b828111156104aa57825182559160200191906001019061048f565b506104b6929150610576565b5090565b828054600181600116156101000203166002900490600052602060002090601f016020900481019282601f106104f357805485556104aa565b828001600101855582156104aa57600052602060002091601f016020900482015b828111156104aa578254825591600101919060010190610514565b50805460018160011615610100020316600290046000825580601f106105555750610573565b601f0160209004906000526020600020908101906105739190610576565b50565b6101e491905b808211156104b6576000815560010161057c565b6000601f820183136105a157600080fd5b81356105b46105af82610726565b6106ff565b915080825260208301602083018583830111156105d057600080fd5b6105db838284610758565b50505092915050565b60006105f082356101e4565b9392505050565b60006020828403121561060957600080fd5b813567ffffffffffffffff81111561062057600080fd5b61062c84828501610590565b949350505050565b60006020828403121561064657600080fd5b600061062c84846105e4565b600061065d82610754565b808452602084019350836020820285016106768561074e565b60005b848110156106ad5783830388526106918383516106b9565b925061069c8261074e565b602098909801979150600101610679565b50909695505050505050565b60006106c482610754565b8084526106d8816020860160208601610764565b6106e181610794565b9093016020019392505050565b602080825281016105f08184610652565b60405181810167ffffffffffffffff8111828210171561071e57600080fd5b604052919050565b600067ffffffffffffffff82111561073d57600080fd5b506020601f91909101601f19160190565b60200190565b5190565b82818337506000910152565b60005b8381101561077f578181015183820152602001610767565b8381111561078e576000848401525b50505050565b601f01601f19169056fea265627a7a7230582004a85a4905619a021598a8155aec3d0e8a2476fddde1cbf83d6f612116b137d96c6578706572696d656e74616cf50037",
  "source": "// SPDX-License-Identifier: MIT\npragma solidity >=0.4.22 <0.9.0;\npragma experimental ABIEncoderV2;\n\ncontract  VaxPass{\n\nstring[]  items;\n\nfunction addItem(string memory item) public { items.push(item); }\nfunction deleteItem(uint index)public returns(string[] memory){ \n\n        if (index >= items.length) return items;\n\n        for (uint i = index; i<items.length-1; i++){\n            items[i] = items[i+1];\n        }\n        items.pop();\n        return items;\n    \n }\nfunction getItems()public view returns(string[] memory){ return items;}\n\n\n\n}",
  "sourcePath": "/Users/sandaru/Desktop/Project/truffle/contracts/VaxPass.sol",
  "compiler": {
    "name": "solc",
    "version": "0.5.0+commit.1d4f565a.Emscripten.clang"
  },
  "schemaVersion": "3.0.1",
  "updatedAt": "2022-03-25T17:51:29.271Z",
  "devdoc": {
    "methods": {}
  },
  "userdoc": {
    "methods": {}
  }
}