{
  "contractName": "VaxPass",
  "abi": [
    {
      "constant": false,
      "inputs": [
        {
          "internalType": "string",
          "name": "item",
          "type": "string"
        }
      ],
      "name": "addItem",
      "outputs": [],
      "payable": false,
      "stateMutability": "nonpayable",
      "type": "function"
    },
    {
      "constant": false,
      "inputs": [
        {
          "internalType": "uint256",
          "name": "index",
          "type": "uint256"
        }
      ],
      "name": "deleteItem",
      "outputs": [
        {
          "internalType": "string[]",
          "name": "",
          "type": "string[]"
        }
      ],
      "payable": false,
      "stateMutability": "nonpayable",
      "type": "function"
    },
    {
      "constant": true,
      "inputs": [],
      "name": "getItems",
      "outputs": [
        {
          "internalType": "string[]",
          "name": "",
          "type": "string[]"
        }
      ],
      "payable": false,
      "stateMutability": "view",
      "type": "function"
    }
  ],
  "bytecode": "0x608060405234801561001057600080fd5b506107d8806100206000396000f3fe608060405234801561001057600080fd5b50600436106100415760003560e01c806327e9f29414610046578063410d59cc1461005b578063654fc83314610079575b600080fd5b6100596100543660046105b4565b61008c565b005b6100636100d2565b60405161007091906106c8565b60405180910390f35b6100636100873660046105f1565b6101ab565b600080546001810180835591805282516100cd917f290decd9548b62a8d60345a988386fc84ba6bc95484008f6362f93160ef3e563019060208501906103fb565b505050565b60606000805480602002602001604051908101604052809291908181526020016000905b828210156101a15760008481526020908190208301805460408051601f600260001961010060018716150201909416939093049283018590048502810185019091528181529283018282801561018d5780601f106101625761010080835404028352916020019161018d565b820191906000526020600020905b81548152906001019060200180831161017057829003601f168201915b5050505050815260200190600101906100f6565b5050505090505b90565b600054606090821061028f576000805480602002602001604051908101604052809291908181526020016000905b828210156102845760008481526020908190208301805460408051601f60026000196101006001871615020190941693909304928301859004850281018501909152818152928301828280156102705780601f1061024557610100808354040283529160200191610270565b820191906000526020600020905b81548152906001019060200180831161025357829003601f168201915b5050505050815260200190600101906101d9565b5050505090506103f6565b815b600054600019018110156102f857600081600101815481106102af57fe5b90600052602060002001600082815481106102c657fe5b9060005260206000200190805460018160011615610100020316600290046102ef929190610479565b50600101610291565b50600080548061030457fe5b60019003818190600052602060002001600061032091906104ee565b90556000805480602002602001604051908101604052809291908181526020016000905b828210156103ef5760008481526020908190208301805460408051601f60026000196101006001871615020190941693909304928301859004850281018501909152818152928301828280156103db5780601f106103b0576101008083540402835291602001916103db565b820191906000526020600020905b8154815290600101906020018083116103be57829003601f168201915b505050505081526020019060010190610344565b5050505090505b919050565b828054600181600116156101000203166002900490600052602060002090601f016020900481019282601f1061043c57805160ff1916838001178555610469565b82800160010185558215610469579182015b8281111561046957825182559160200191906001019061044e565b50610475929150610535565b5090565b828054600181600116156101000203166002900490600052602060002090601f016020900481019282601f106104b25780548555610469565b8280016001018555821561046957600052602060002091601f016020900482015b828111156104695782548255916001019190600101906104d3565b50805460018160011615610100020316600290046000825580601f106105145750610532565b601f0160209004906000526020600020908101906105329190610535565b50565b6101a891905b80821115610475576000815560010161053b565b600082601f83011261056057600080fd5b813561057361056e82610700565b6106d9565b9150808252602083016020830185838301111561058f57600080fd5b61059a83828461073b565b50505092915050565b80356105ae81610781565b92915050565b6000602082840312156105c657600080fd5b813567ffffffffffffffff8111156105dd57600080fd5b6105e98482850161054f565b949350505050565b60006020828403121561060357600080fd5b60006105e984846105a3565b600061061b8383610690565b9392505050565b600061062d8261072e565b6106378185610732565b93508360208202850161064985610728565b8060005b858110156106835784840389528151610666858261060f565b945061067183610728565b60209a909a019992505060010161064d565b5091979650505050505050565b600061069b8261072e565b6106a58185610732565b93506106b5818560208601610747565b6106be81610777565b9093019392505050565b6020808252810161061b8184610622565b60405181810167ffffffffffffffff811182821017156106f857600080fd5b604052919050565b600067ffffffffffffffff82111561071757600080fd5b506020601f91909101601f19160190565b60200190565b5190565b90815260200190565b82818337506000910152565b60005b8381101561076257818101518382015260200161074a565b83811115610771576000848401525b50505050565b601f01601f191690565b61078a816101a8565b811461053257600080fdfea365627a7a7231582005ae53899748b31a87a1522745e80bf1a7f301878b7ae49046f4fc382d98e72d6c6578706572696d656e74616cf564736f6c63430005100040",
  "source": "// SPDX-License-Identifier: MIT\npragma solidity >=0.4.22 <0.9.0;\npragma experimental ABIEncoderV2;\n\ncontract VaxPass {\n    string[] items;\n\n    function addItem(string memory item) public {\n        items.push(item);\n    }\n\n    function deleteItem(uint256 index) public returns (string[] memory) {\n        if (index >= items.length) return items;\n\n        for (uint256 i = index; i < items.length - 1; i++) {\n            items[i] = items[i + 1];\n        }\n        items.pop();\n        return items;\n    }\n\n    function getItems() public view returns (string[] memory) {\n        return items;\n    }\n}\n",
  "sourcePath": "/Users/DATA DRIVE/Degree/L5/SDGP/Project/truffle/contracts/VaxPass.sol",
  "compiler": {
    "name": "solc",
    "version": "0.5.16+commit.9c3226ce.Emscripten.clang"
  },
  "schemaVersion": "3.4.5",
  "updatedAt": "2022-03-27T12:01:17.865Z",
  "networkType": "ethereum",
  "devdoc": {
    "methods": {}
  },
  "userdoc": {
    "methods": {}
  }
}