{
  "contractName": "VaxPass",
  "abi": [
    {
      "constant": true,
      "inputs": [
        {
          "name": "",
          "type": "uint256"
        }
      ],
      "name": "records",
      "outputs": [
        {
          "name": "id",
          "type": "uint256"
        },
        {
          "name": "nic",
          "type": "string"
        }
      ],
      "payable": false,
      "stateMutability": "view",
      "type": "function",
      "signature": "0x34461067"
    },
    {
      "constant": true,
      "inputs": [],
      "name": "recordCount",
      "outputs": [
        {
          "name": "",
          "type": "uint256"
        }
      ],
      "payable": false,
      "stateMutability": "view",
      "type": "function",
      "signature": "0x900407bc"
    },
    {
      "constant": false,
      "inputs": [
        {
          "name": "_content",
          "type": "string"
        }
      ],
      "name": "createRecord",
      "outputs": [],
      "payable": false,
      "stateMutability": "nonpayable",
      "type": "function",
      "signature": "0xdb70504b"
    }
  ],
  "bytecode": "0x60806040526000805534801561001457600080fd5b5061039f806100246000396000f3fe6080604052600436106100565763ffffffff7c010000000000000000000000000000000000000000000000000000000060003504166334461067811461005b578063900407bc14610104578063db70504b1461012b575b600080fd5b34801561006757600080fd5b506100856004803603602081101561007e57600080fd5b50356101e0565b6040518083815260200180602001828103825283818151815260200191508051906020019080838360005b838110156100c85781810151838201526020016100b0565b50505050905090810190601f1680156100f55780820380516001836020036101000a031916815260200191505b50935050505060405180910390f35b34801561011057600080fd5b50610119610286565b60408051918252519081900360200190f35b34801561013757600080fd5b506101de6004803603602081101561014e57600080fd5b81019060208101813564010000000081111561016957600080fd5b82018360208201111561017b57600080fd5b8035906020019184600183028401116401000000008311171561019d57600080fd5b91908080601f01602080910402602001604051908101604052809392919081815260200183838082843760009201919091525092955061028c945050505050565b005b600160208181526000928352604092839020805481840180548651600296821615610100026000190190911695909504601f8101859004850286018501909652858552909491939290919083018282801561027c5780601f106102515761010080835404028352916020019161027c565b820191906000526020600020905b81548152906001019060200180831161025f57829003601f168201915b5050505050905082565b60005481565b600080546001908101808355604080518082018252828152602080820187815293865284815291909420845181559151805192936102d2939085019291909101906102d8565b50505050565b828054600181600116156101000203166002900490600052602060002090601f016020900481019282601f1061031957805160ff1916838001178555610346565b82800160010185558215610346579182015b8281111561034657825182559160200191906001019061032b565b50610352929150610356565b5090565b61037091905b80821115610352576000815560010161035c565b9056fea165627a7a72305820d4e7d104d5bff242d8e2af777b81a271ef37dad37f60ac2ed6e4e231960c2c860029",
  "source": "pragma solidity ^0.5.0;\n\ncontract VaxPass{\n    uint public recordCount = 0;\n\n    struct Record{\n        uint id;\n        string nic;\n    }\n\n    mapping(uint => Record) public records;\n\n//  Displsys sample record\n    // constructor() public{\n    //     createRecord(\"record 1\");\n    // }\n\n    function createRecord(string memory _content) public{\n        recordCount++;\n        records[recordCount] = Record(recordCount, _content);\n    }\n\n\n}",
  "sourcePath": "C:/Users/anuja/Desktop/VaxPass-master/contracts/VaxPass.sol",
  "compiler": {
    "name": "solc",
    "version": "0.5.0+commit.1d4f565a.Emscripten.clang"
  },
  "schemaVersion": "3.0.1",
  "updatedAt": "2022-03-10T10:49:01.853Z",
  "devdoc": {
    "methods": {}
  },
  "userdoc": {
    "methods": {}
  }
}